{
  "_format": "hh-sol-artifact-1",
  "contractName": "SikaVault",
  "sourceName": "Contracts/SikaVault.sol",
  "abi": [
    {
      "inputs": [
        {
          "internalType": "address[]",
          "name": "_members",
          "type": "address[]"
        },
        {
          "internalType": "uint256[]",
          "name": "_payoutOrder",
          "type": "uint256[]"
        },
        {
          "internalType": "uint256",
          "name": "_contributionAmount",
          "type": "uint256"
        },
        {
          "internalType": "uint256",
          "name": "_payoutIntervalDays",
          "type": "uint256"
        },
        {
          "internalType": "address",
          "name": "_token",
          "type": "address"
        }
      ],
      "stateMutability": "nonpayable",
      "type": "constructor"
    },
    {
      "inputs": [],
      "name": "ReentrancyGuardReentrantCall",
      "type": "error"
    },
    {
      "anonymous": false,
      "inputs": [
        {
          "indexed": true,
          "internalType": "address",
          "name": "member",
          "type": "address"
        },
        {
          "indexed": false,
          "internalType": "uint256",
          "name": "amount",
          "type": "uint256"
        },
        {
          "indexed": false,
          "internalType": "uint256",
          "name": "cycle",
          "type": "uint256"
        }
      ],
      "name": "Deposit",
      "type": "event"
    },
    {
      "anonymous": false,
      "inputs": [
        {
          "indexed": true,
          "internalType": "address",
          "name": "requester",
          "type": "address"
        },
        {
          "indexed": false,
          "internalType": "uint256",
          "name": "amount",
          "type": "uint256"
        }
      ],
      "name": "EmergencyPayoutExecuted",
      "type": "event"
    },
    {
      "anonymous": false,
      "inputs": [
        {
          "indexed": true,
          "internalType": "address",
          "name": "requester",
          "type": "address"
        }
      ],
      "name": "EmergencyRequested",
      "type": "event"
    },
    {
      "anonymous": false,
      "inputs": [
        {
          "indexed": true,
          "internalType": "address",
          "name": "voter",
          "type": "address"
        },
        {
          "indexed": true,
          "internalType": "address",
          "name": "requester",
          "type": "address"
        }
      ],
      "name": "EmergencyVote",
      "type": "event"
    },
    {
      "anonymous": false,
      "inputs": [
        {
          "indexed": true,
          "internalType": "address",
          "name": "recipient",
          "type": "address"
        },
        {
          "indexed": false,
          "internalType": "uint256",
          "name": "amount",
          "type": "uint256"
        },
        {
          "indexed": false,
          "internalType": "uint256",
          "name": "cycle",
          "type": "uint256"
        }
      ],
      "name": "PayoutExecuted",
      "type": "event"
    },
    {
      "anonymous": false,
      "inputs": [],
      "name": "VaultTerminated",
      "type": "event"
    },
    {
      "inputs": [],
      "name": "contributionAmount",
      "outputs": [
        {
          "internalType": "uint256",
          "name": "",
          "type": "uint256"
        }
      ],
      "stateMutability": "view",
      "type": "function"
    },
    {
      "inputs": [],
      "name": "currentCycle",
      "outputs": [
        {
          "internalType": "uint256",
          "name": "",
          "type": "uint256"
        }
      ],
      "stateMutability": "view",
      "type": "function"
    },
    {
      "inputs": [],
      "name": "deposit",
      "outputs": [],
      "stateMutability": "nonpayable",
      "type": "function"
    },
    {
      "inputs": [],
      "name": "emergencyRequest",
      "outputs": [
        {
          "internalType": "address",
          "name": "requester",
          "type": "address"
        },
        {
          "internalType": "uint256",
          "name": "votes",
          "type": "uint256"
        },
        {
          "internalType": "bool",
          "name": "active",
          "type": "bool"
        }
      ],
      "stateMutability": "view",
      "type": "function"
    },
    {
      "inputs": [],
      "name": "executeEmergencyPayout",
      "outputs": [],
      "stateMutability": "nonpayable",
      "type": "function"
    },
    {
      "inputs": [],
      "name": "executePayout",
      "outputs": [],
      "stateMutability": "nonpayable",
      "type": "function"
    },
    {
      "inputs": [],
      "name": "getVaultConfiguration",
      "outputs": [
        {
          "internalType": "address",
          "name": "token_",
          "type": "address"
        },
        {
          "internalType": "uint256",
          "name": "contributionAmount_",
          "type": "uint256"
        },
        {
          "internalType": "uint256",
          "name": "payoutInterval_",
          "type": "uint256"
        },
        {
          "internalType": "uint256",
          "name": "membersCount_",
          "type": "uint256"
        },
        {
          "internalType": "bool",
          "name": "isTerminated_",
          "type": "bool"
        }
      ],
      "stateMutability": "view",
      "type": "function"
    },
    {
      "inputs": [],
      "name": "getVaultState",
      "outputs": [
        {
          "internalType": "uint256",
          "name": "currentCycle_",
          "type": "uint256"
        },
        {
          "internalType": "uint256",
          "name": "totalPot_",
          "type": "uint256"
        },
        {
          "internalType": "uint256",
          "name": "nextPayoutTime_",
          "type": "uint256"
        }
      ],
      "stateMutability": "view",
      "type": "function"
    },
    {
      "inputs": [
        {
          "internalType": "address",
          "name": "member",
          "type": "address"
        },
        {
          "internalType": "uint256",
          "name": "cycle",
          "type": "uint256"
        }
      ],
      "name": "hasMemberPaidForCycle",
      "outputs": [
        {
          "internalType": "bool",
          "name": "",
          "type": "bool"
        }
      ],
      "stateMutability": "view",
      "type": "function"
    },
    {
      "inputs": [
        {
          "internalType": "uint256",
          "name": "",
          "type": "uint256"
        },
        {
          "internalType": "address",
          "name": "",
          "type": "address"
        }
      ],
      "name": "hasPaidForCycle",
      "outputs": [
        {
          "internalType": "bool",
          "name": "",
          "type": "bool"
        }
      ],
      "stateMutability": "view",
      "type": "function"
    },
    {
      "inputs": [
        {
          "internalType": "address",
          "name": "",
          "type": "address"
        }
      ],
      "name": "isMember",
      "outputs": [
        {
          "internalType": "bool",
          "name": "",
          "type": "bool"
        }
      ],
      "stateMutability": "view",
      "type": "function"
    },
    {
      "inputs": [],
      "name": "isTerminated",
      "outputs": [
        {
          "internalType": "bool",
          "name": "",
          "type": "bool"
        }
      ],
      "stateMutability": "view",
      "type": "function"
    },
    {
      "inputs": [
        {
          "internalType": "uint256",
          "name": "",
          "type": "uint256"
        }
      ],
      "name": "members",
      "outputs": [
        {
          "internalType": "address",
          "name": "",
          "type": "address"
        }
      ],
      "stateMutability": "view",
      "type": "function"
    },
    {
      "inputs": [],
      "name": "membersCount",
      "outputs": [
        {
          "internalType": "uint256",
          "name": "",
          "type": "uint256"
        }
      ],
      "stateMutability": "view",
      "type": "function"
    },
    {
      "inputs": [],
      "name": "nextPayoutTime",
      "outputs": [
        {
          "internalType": "uint256",
          "name": "",
          "type": "uint256"
        }
      ],
      "stateMutability": "view",
      "type": "function"
    },
    {
      "inputs": [],
      "name": "payoutInterval",
      "outputs": [
        {
          "internalType": "uint256",
          "name": "",
          "type": "uint256"
        }
      ],
      "stateMutability": "view",
      "type": "function"
    },
    {
      "inputs": [
        {
          "internalType": "uint256",
          "name": "",
          "type": "uint256"
        }
      ],
      "name": "payoutOrder",
      "outputs": [
        {
          "internalType": "uint256",
          "name": "",
          "type": "uint256"
        }
      ],
      "stateMutability": "view",
      "type": "function"
    },
    {
      "inputs": [],
      "name": "requestEmergencyPayout",
      "outputs": [],
      "stateMutability": "nonpayable",
      "type": "function"
    },
    {
      "inputs": [],
      "name": "token",
      "outputs": [
        {
          "internalType": "address",
          "name": "",
          "type": "address"
        }
      ],
      "stateMutability": "view",
      "type": "function"
    },
    {
      "inputs": [],
      "name": "totalPot",
      "outputs": [
        {
          "internalType": "uint256",
          "name": "",
          "type": "uint256"
        }
      ],
      "stateMutability": "view",
      "type": "function"
    },
    {
      "inputs": [],
      "name": "voteForEmergencyPayout",
      "outputs": [],
      "stateMutability": "nonpayable",
      "type": "function"
    },
    {
      "inputs": [],
      "name": "vaultName",
      "outputs": [
        {
          "internalType": "string",
          "name": "",
          "type": "string"
        }
      ],
      "stateMutability": "view",
      "type": "function"
    }
  ],
  "bytecode": "0x6101006040523480156200001257600080fd5b5060405162002baf38038062002baf8339818101604052810190620000389190620006c4565b60016000819055508073ffffffffffffffffffffffffffffffffffffffff1660808173ffffffffffffffffffffffffffffffffffffffff16815250508260a0818152505062015180826200008d9190620007b9565b60c081815250508460019080519060200190620000ac929190620002c5565b508360029080519060200190620000c592919062000354565b50845160e0818152505060005b8551811015620002a357600073ffffffffffffffffffffffffffffffffffffffff168682815181106200010a576200010962000804565b5b602002602001015173ffffffffffffffffffffffffffffffffffffffff16036200016b576040517f08c379a00000000000000000000000000000000000000000000000000000000081526004016200016290620008ba565b60405180910390fd5b6003600087838151811062000185576200018462000804565b5b602002602001015173ffffffffffffffffffffffffffffffffffffffff1673ffffffffffffffffffffffffffffffffffffffff16815260200190815260200160002060009054906101000a900460ff161562000218576040517f08c379a00000000000000000000000000000000000000000000000000000000081526004016200020f9062000952565b60405180910390fd5b60016003600088848151811062000234576200023362000804565b5b602002602001015173ffffffffffffffffffffffffffffffffffffffff1673ffffffffffffffffffffffffffffffffffffffff16815260200190815260200160002060006101000a81548160ff02191690831515021790555080806200029a9062000974565b915050620000d2565b5060c05142620002b49190620009c1565b6006819055505050505050620009fc565b82805482825590600052602060002090810192821562000341579160200282015b82811115620003405782518260006101000a81548173ffffffffffffffffffffffffffffffffffffffff021916908373ffffffffffffffffffffffffffffffffffffffff16021790555091602001919060010190620002e6565b5b509050620003509190620003a6565b5090565b82805482825590600052602060002090810192821562000393579160200282015b828111156200039257825182559160200191906001019062000375565b5b509050620003a29190620003a6565b5090565b5b80821115620003c1576000816000905550600101620003a7565b5090565b6000604051905090565b600080fd5b600080fd5b600080fd5b6000601f19601f8301169050919050565b7f4e487b7100000000000000000000000000000000000000000000000000000000600052604160045260246000fd5b6200042982620003de565b810181811067ffffffffffffffff821117156200044b576200044a620003ef565b5b80604052505050565b600062000460620003c5565b90506200046e82826200041e565b919050565b600067ffffffffffffffff821115620004915762000490620003ef565b5b602082029050602081019050919050565b600080fd5b600073ffffffffffffffffffffffffffffffffffffffff82169050919050565b6000620004d4826116be565b9050919050565b620004e68161162c565b811461167957600080fd5b50565b6000815190506200050681620004db565b92915050565b6000620005236200051d8462000473565b62000454565b90508083825260208201905060208402830185811115620005495762000548620004a2565b5b835b81811015620005765780620005618882620004f5565b8452602084019350506020810190506200054b565b5050509392505050565b600082601f830112620005985762000597620003d9565b5b8151620005aa8482602086016200050c565b91505092915050565b600067ffffffffffffffff821115620005d157620005d0620003ef565b5b602082029050602081019050919050565b6000819050919050565b620005f78161162c565b811461167957600080fd5b50565b6000815190506200061781620005ec565b92915050565b6000620006346200062e84620005b3565b62000454565b905080838252602082019050602084028301858111156200065a5762000659620004a2565b5b835b8181101562000687578062000672888262000606565b8452602084019350506020810190506200065c565b5050509392505050565b600082601f830112620006a957620006a8620003d9565b5b8151620006bb8482602086016200061d565b91505092915050565b600080600080600060a08688031215620006e357620006e2620003cf565b5b600086015167ffffffffffffffff811115620007045762000703620003d4565b5b620007128882890162000580565b955050602086015167ffffffffffffffff811115620007365762000735620003d4565b5b620007448882890162000691565b9450506040620007578882890162000606565b93505060606200076a8882890162000606565b92505060806200077d88828901620004f5565b9150509295509295909350565b7f4e487b7100000000000000000000000000000000000000000000000000000000600052601160045260246000fd5b6000620007c682620005e2565b9150620007d383620005e2565b9250828202620007e381620005e2565b91508282048414831517620007fd57620007fc6200078a565b5b5092915050565b7f4e487b7100000000000000000000000000000000000000000000000000000000600052603260045260246000fd5b6000604082019050611e0a6000830185611636565b611e176020830184611636565b9392505050565b6000611e298261162c565b91507fffffffffffffffffffffffffffffffffffffffffffffffffffffffffffffffff8203611e5b57611e5a611cc3565b5b600182019050919050565b6000611e718261162c565b9150611e7c8361162c565b9250828201905080821115611e9457611e93611cc3565b5b92915050565b7f53696b615661756c743a204d656d6265722068617320616c726561647920766f60008201527f7465640000000000000000000000000000000000000000000000000000000000602082015250565b6000611ef66023836118ea565b9150611f0182611e9a565b604082019050919050565b60006020820190508181036000830152611f2581611ee9565b9050919050565b7f53696b615661756c743a20416c7265616479207061696420666f72207468697360008201527f206379636c650000000000000000000000000000000000000000000000000000602082015250565b6000611f886026836118ea565b9150611f9382611f2c565b604082019050919050565b60006020820190508181036000830152611fb781611f7b565b9050919050565b6000604082019050611fd360008301856116f0565b611fe060208301846116f0565b9392505050565b600081519050611ff681611665565b92915050565b60006020828403121561201257612011611660565b5b600061202084828501611fe7565b91505092915050565b7f53696b615661756c743a20436865636b20746f6b656e20616c6c6f77616e6365600082015250565b600061205f6020836118ea565b915061206a82612029565b602082019050919050565b6000602082019050818103600083015261208e81612052565b9050919050565b60006060820190506120aa60008301866116f0565b6120b760208301856116f0565b6120c46040830184611636565b94935050505056fea2646970667358221220b8d6acce2b7bb2e2eb889cd147d4bb9f260624b6488f5081a409f20d2c3cb7fe64736f6c63430008140033",
  "deployedBytecode": "0x608060405234801561001057600080fd5b50600436106101375760003560e01c80636a12c054116100b8578063bab2f5521161007c578063bab2f552146102fa578063d0e30db014610318578063d1cc997614610322578063e40e57ac14610340578063fac18d4a14610370578063fc0c546a1461039257610137565b80636a12c054146102685780636d8ebaa814610298578063791c4332146102b657806389710674146102c0578063a230c524146102ca57610137565b8063266b5fb0116100ff578063266b5fb0146101d2578063297f9af0146101dc5780634a8c110a146101fa5780635daf08ca1461021a5780635fa0b65f1461024a57610137565b806309e785e11461013c5780630b529a171461015a5780631237daff1461018a57806318ef3e121461019457806324b570a9146101b4575b600080fd5b6101446103b0565b6040516101519190611645565b60405180910390f35b610174600480360381019061016f9190611691565b6103d4565b6040516101819190611645565b60405180910390f35b6101926103f8565b005b61019c610631565b6040516101ab9392919061171a565b60405180910390f35b6101bc610676565b6040516101c99190611645565b60405180910390f35b6101da61067c565b005b6101e46108c7565b6040516101f19190611645565b60405180910390f35b6102026108eb565b60405161021193929190611751565b60405180910390f35b610234600480360381019061022f9190611691565b610904565b6040516102419190611788565b60405180910390f35b610252610943565b60405161025f9190611645565b60405180910390f35b610282600480360381019061027d91906117cf565b610967565b60405161028f919061180f565b60405180910390f35b6102a06109cf565b6040516102ad9190611645565b60405180910390f35b6102be6109d5565b005b6102c8610cfa565b005b6102e460048036038101906102df919061182a565b610fa9565b6040516102f1919061180f565b60405180910390f35b610302610fc9565b60405161030f9190611645565b60405180910390f35b610320610fcf565b005b61032a611438565b604051610337919061180f565b60405180910390f35b61035a60048036038101906103559190611857565b61144b565b604051610367919061180f565b60405180910390f35b61037861147a565b604051610389959493929190611897565b60405180910390f35b61039a611527565b6040516103a79190611788565b60405180910390f35b7f000000000000000000000000000000000000000000000000000000000000000081565b600281815481106103e457600080fd5b906000526020600020016000915090505481565b600360003373ffffffffffffffffffffffffffffffffffffffff1673ffffffffffffffffffffffffffffffffffffffff16815260200190815260200160002060009054906101000a900460ff16610484576040517f08c379a000000000000000000000000000000000000000000000000000000000815260040161047b9061196d565b60405180910390fd5b600860009054906101000a900460ff16156104d4576040517f08c379a00000000000000000000000000000000000000000000000000000000081526004016104cb906119d9565b60405180910390fd5b600960020160009054906101000a900460ff1615610527576040517f08c379a000000000000000000000000000000000000000000000000000000000815260040161051e90611a6b565b60405180910390fd5b6001600960020160006101000a81548160ff02191690831515021790555033600960000160006101000a81548173ffffffffffffffffffffffffffffffffffffffff021916908373ffffffffffffffffffffffffffffffffffffffff16021790555060016009600101819055506001600c60003373ffffffffffffffffffffffffffffffffffffffff1673ffffffffffffffffffffffffffffffffffffffff16815260200190815260200160002060006101000a81548160ff0219169083151502179055503373ffffffffffffffffffffffffffffffffffffffff167f3b9ac980b215b006427a7642b4b8bd7bdbb582fe9a766f8ff46e049c08f2753360405160405180910390a2565b60098060000160009054906101000a900473ffffffffffffffffffffffffffffffffffffffff16908060010154908060020160009054906101000a900460ff16905083565b60055481565b600860009054906101000a900460ff16156106cc576040517f08c379a00000000000000000000000000000000000000000000000000000000081526004016106c3906119d9565b60405180910390fd5b6106d461154b565b600960020160009054906101000a900460ff16610726576040517f08c379a000000000000000000000000000000000000000000000000000000000815260040161071d90611afd565b60405180910390fd5b7f00000000000000000000000000000000000000000000000000000000000000006009600101541461078d576040517f08c379a000000000000000000000000000000000000000000000000000000000815260040161078490611b8f565b60405180910390fd5b6000600960000160009054906101000a900473ffffffffffffffffffffffffffffffffffffffff1690506000600554905060006005819055507f000000000000000000000000000000000000000000000000000000000000000073ffffffffffffffffffffffffffffffffffffffff1663a9059cbb83836040518363ffffffff1660e01b8152600401610821929190611baf565b6020604051808303816000875af1158015610840573d6000803e3d6000fd5b505050506040513d601f19601f820116820180604052508101906108649190611c04565b508173ffffffffffffffffffffffffffffffffffffffff167f67fe1b687c45b7eb1e627b6326938390395eca62f0d982039828c1e3f73031c6826040516108ab9190611645565b60405180910390a26108bb611591565b50506108c5611622565b565b7f000000000000000000000000000000000000000000000000000000000000000081565b6000806000600454600554600654925092509250909192565b6001818154811061091457600080fd5b906000526020600020016000915054906101000a900473ffffffffffffffffffffffffffffffffffffffff1681565b7f000000000000000000000000000000000000000000000000000000000000000081565b60006007600083815260200190815260200160002060008473ffffffffffffffffffffffffffffffffffffffff1673ffffffffffffffffffffffffffffffffffffffff16815260200190815260200160002060009054906101000a900460ff16905092915050565b60065481565b600860009054906101000a900460ff1615610a25576040517f08c379a0000000000000000000000000000000000000000000000000000000008152600401610a1c906119d9565b60405180910390fd5b610a2d61154b565b600654421015610a72576040517f08c379a0000000000000000000000000000000000000000000000000000000008152600401610a6990611ca3565b60405180910390fd5b60007f00000000000000000000000000000000000000000000000000000000000000007f0000000000000000000000000000000000000000000000000000000000000000610ac09190611cf2565b9050806005541015610b07576040517f08c379a0000000000000000000000000000000000000000000000000000000008152600401610afe90611da6565b60405180910390fd5b60006001600260045481548110610b2157610b20611dc6565b5b906000526020600020015481548110610b3d57610b3c611dc6565b5b9060005260206000200160009054906101000a900473ffffffffffffffffffffffffffffffffffffffff1690506000600554905060006005819055507f000000000000000000000000000000000000000000000000000000000000000073ffffffffffffffffffffffffffffffffffffffff1663a9059cbb83836040518363ffffffff1660e01b8152600401610bd4929190611baf565b6020604051808303816000875af1158015610bf3573d6000803e3d6000fd5b505050506040513d601f19601f82011682018060405250810190610c179190611c04565b508173ffffffffffffffffffffffffffffffffffffffff167f63f55f28cc9b6363ecdbaa936809f86425d5709291a6d3e58910f0d9fc4b390f82600454604051610c62929190611df5565b60405180910390a260046000815480929190610c7d90611e1e565b91905055507f000000000000000000000000000000000000000000000000000000000000000060066000828254610cb49190611e66565b925050819055507f000000000000000000000000000000000000000000000000000000000000000060045410610ced57610cec611591565b5b505050610cf8611622565b565b600360003373ffffffffffffffffffffffffffffffffffffffff1673ffffffffffffffffffffffffffffffffffffffff16815260200190815260200160002060009054906101000a900460ff16610d86576040517f08c379a0000000000000000000000000000000000000000000000000000000008152600401610d7d9061196d565b60405180910390fd5b600860009054906101000a900460ff1615610dd6576040517f08c379a0000000000000000000000000000000000000000000000000000000008152600401610dcd906119d9565b60405180910390fd5b600960020160009054906101000a900460ff16610e28576040517f08c379a0000000000000000000000000000000000000000000000000000000008152600401610e1f90611afd565b60405180910390fd5b600c60003373ffffffffffffffffffffffffffffffffffffffff1673ffffffffffffffffffffffffffffffffffffffff16815260200190815260200160002060009054906101000a900460ff1615610eb5576040517f08c379a0000000000000000000000000000000000000000000000000000000008152600401610eac90611f0c565b60405180910390fd5b6001600c60003373ffffffffffffffffffffffffffffffffffffffff1673ffffffffffffffffffffffffffffffffffffffff16815260200190815260200160002060006101000a81548160ff02191690831515021790555060096001016000815480929190610f2390611e1e565b9190505550600960000160009054906101000a900473ffffffffffffffffffffffffffffffffffffffff1673ffffffffffffffffffffffffffffffffffffffff163373ffffffffffffffffffffffffffffffffffffffff167f75e53f4b5fc2fdc21e6394059ec7e37b0dceaa9cc2219853823fd08ce02d790960405160405180910390a3565b60036020528060005260406000206000915054906101000a900460ff1681565b60045481565b600360003373ffffffffffffffffffffffffffffffffffffffff1673ffffffffffffffffffffffffffffffffffffffff16815260200190815260200160002060009054906101000a900460ff1661105b576040517f08c379a00000000000000000000000000000000000000000000000000000000081526004016110529061196d565b60405180910390fd5b600860009054906101000a900460ff16156110ab576040517f08c379a00000000000000000000000000000000000000000000000000000000081526004016110a2906119d9565b60405180910390fd5b6110b361154b565b60076000600454815260200190815260200160002060003373ffffffffffffffffffffffffffffffffffffffff1673ffffffffffffffffffffffffffffffffffffffff16815260200190815260200160002060009054906101000a900460ff1615611153576040517f08c379a000000000000000000000000000000000000000000000000000000000815260040161114a90611f9e565b60405180910390fd5b600160076000600454815260200190815260200160002060003373ffffffffffffffffffffffffffffffffffffffff1673ffffffffffffffffffffffffffffffffffffffff16815260200190815260200160002060006101000a81548160ff0219169083151502179055507f0000000000000000000000000000000000000000000000000000000000000000600560008282546111f09190611e66565b9250508190555060007f000000000000000000000000000000000000000000000000000000000000000073ffffffffffffffffffffffffffffffffffffffff1663dd62ed3e33306040518363ffffffff1660e01b8152600401611254929190611fbe565b602060405180830381865afa158015611271573d6000803e3d6000fd5b505050506040513d601f19601f820116820180604052508101906112959190611ffc565b90507f00000000000000000000000000000000000000000000000000000000000000008110156112fa576040517f08c379a00000000000000000000000000000000000000000000000000000000081526004016112f190612075565b60405180910390fd5b7f000000000000000000000000000000000000000000000000000000000000000073ffffffffffffffffffffffffffffffffffffffff166323b872dd33307f00000000000000000000000000000000000000000000000000000000000000006040518463ffffffff1660e01b815260040161137793929190612095565b6020604051808303816000875af1158015611396573d6000803e3d6000fd5b505050506040513d601f19601f820116820180604052508101906113ba9190611c04565b503373ffffffffffffffffffffffffffffffffffffffff167f90890809c654f11d6e72a28fa60149770a0d11ec6c92319d6ceb2bb0a4ea1a157f0000000000000000000000000000000000000000000000000000000000000000600454604051611425929190611df5565b60405180910390a250611436611622565b565b600860009054906101000a900460ff1681565b60076020528160005260406000206020528060005260406000206000915091509054906101000a900460ff1681565b60008060008060007f00000000000000000000000000000000000000000000000000000000000000007f00000000000000000000000000000000000000000000000000000000000000007f00000000000000000000000000000000000000000000000000000000000000007f0000000000000000000000000000000000000000000000000000000000000000600860009054906101000a900460ff16945094509450945094509091929394565b7f000000000000000000000000000000000000000000000000000000000000000081565b600260005403611587576040517f3ee5aeb500000000000000000000000000000000000000000000000000000000815260040160405180910390fd5b6002600081905550565b6001600860006101000a81548160ff0219169083151502179055506009600080820160006101000a81549073ffffffffffffffffffffffffffffffffffffffff021916905560018201600090556002820160006101000a81549060ff021916905550507faab369ec506be79198906717586f7aca2b63aab5c0e4cbd93d1871a724f4ba9060405160405180910390a1565b6001600081905550565b6000819050919050565b61163f8161162c565b82525050565b600060208201905061165a6000830184611636565b92915050565b600080fd5b61166e8161162c565b811461167957600080fd5b50565b60008135905061168b81611665565b92915050565b6000602082840312156116a7576116a6611660565b5b60006116b58482850161167c565b91505092915050565b600073ffffffffffffffffffffffffffffffffffffffff82169050919050565b60006116e9826116be565b9050919050565b6116f9816116de565b82525050565b60008115159050919050565b611714816116ff565b82525050565b600060608201905061172f60008301866116f0565b61173c6020830185611636565b611749604083018461170b565b949350505050565b60006060820190506117666000830186611636565b6117736020830185611636565b6117806040830184611636565b949350505050565b600060208201905061179d60008301846116f0565b92915050565b6117ac816116de565b81146117b757600080fd5b50565b6000813590506117c9816117a3565b92915050565b600080604083850312156117e6576117e5611660565b5b60006117f4858286016117ba565b92505060206118058582860161167c565b9150509250929050565b6000602082019050611824600083018461170b565b92915050565b6000602082840312156118405761183f611660565b5b600061184e848285016117ba565b91505092915050565b6000806040838503121561186e5761186d611660565b5b600061187c8582860161167c565b925050602061188d858286016117ba565b9150509250929050565b600060a0820190506118ac60008301886116f0565b6118b96020830187611636565b6118c66040830186611636565b6118d36060830185611636565b6118e0608083018461170b565b9695505050505050565b600082825260208201905092915050565b7f53696b615661756c743a2043616c6c6572206973206e6f742061206d656d626560008201527f7200000000000000000000000000000000000000000000000000000000000000602082015250565b60006119576021836118ea565b9150611962826118fb565b604082019050919050565b600060208201905081810360008301526119868161194a565b9050919050565b7f53696b615661756c743a205661756c74206973207465726d696e617465640000600082015250565b60006119c3601e836118ea565b91506119ce8261198d565b602082019050919050565b600060208201905081810360008301526119f2816119b6565b9050919050565b7f53696b615661756c743a20456d657267656e6379207265717565737420616c7260008201527f6561647920616374697665000000000000000000000000000000000000000000602082015250565b6000611a55602b836118ea565b9150611a60826119f9565b604082019050919050565b60006020820190508181036000830152611a8481611a48565b9050919050565b7f53696b615661756c743a204e6f2061637469766520656d657267656e6379207260008201527f6571756573740000000000000000000000000000000000000000000000000000602082015250565b6000611ae76026836118ea565b9150611af282611a8b565b604082019050919050565b60006020820190508181036000830152611b1681611ada565b9050919050565b7f53696b615661756c743a20556e616e696d6f757320636f6e73656e74206e6f7460008201527f2072656163686564000000000000000000000000000000000000000000000000602082015250565b6000611b796028836118ea565b9150611b8482611b1d565b604082019050919050565b60006020820190508181036000830152611ba881611b6c565b9050919050565b6000604082019050611bc460008301856116f0565b611bd16020830184611636565b9392505050565b611be1816116ff565b8114611bec57600080fd5b50565b600081519050611bfe81611bd8565b92915050565b600060208284031215611c1a57611c19611660565b5b6000611c2884828501611bef565b91505092915050565b7f53696b615661756c743a205061796f75742074696d65206e6f7420796574207260008201527f6561636865640000000000000000000000000000000000000000000000000000602082015250565b6000611c8d6026836118ea565b9150611c9882611c31565b604082019050919050565b60006020820190508181036000830152611cbc81611c80565b9050919050565b7f4e487b7100000000000000000000000000000000000000000000000000000000600052601160045260246000fd5b6000611cfd8261162c565b9150611d088361162c565b9250828202611d168161162c565b91508282048414831517611d2d57611d2c611cc3565b5b5092915050565b7f53696b615661756c743a205061796f757420726f6c6c696e67206f7665722c2060008201527f706f74206e6f742066756c6c0000000000000000000000000000000000000000602082015250565b6000611d90602c836118ea565b9150611d9b82611d34565b604082019050919050565b60006020820190508181036000830152611dbf81611d83565b9050919050565b7f4e487b7100000000000000000000000000000000000000000000000000000000600052603260045260246000fd5b6000604082019050611e0a6000830185611636565b611e176020830184611636565b9392505050565b6000611e298261162c565b91507fffffffffffffffffffffffffffffffffffffffffffffffffffffffffffffffff8203611e5b57611e5a611cc3565b5b600182019050919050565b6000611e718261162c565b9150611e7c8361162c565b9250828201905080821115611e9457611e93611cc3565b5b92915050565b7f53696b615661756c743a204d656d6265722068617320616c726561647920766f60008201527f7465640000000000000000000000000000000000000000000000000000000000602082015250565b6000611ef66023836118ea565b9150611f0182611e9a565b604082019050919050565b60006020820190508181036000830152611f2581611ee9565b9050919050565b7f53696b615661756c743a20416c7265616479207061696420666f72207468697360008201527f206379636c650000000000000000000000000000000000000000000000000000602082015250565b6000611f886026836118ea565b9150611f9382611f2c565b604082019050919050565b60006020820190508181036000830152611fb781611f7b565b9050919050565b6000604082019050611fd360008301856116f0565b611fe060208301846116f0565b9392505050565b600081519050611ff681611665565b92915050565b60006020828403121561201257612011611660565b5b600061202084828501611fe7565b91505092915050565b7f53696b615661756c743a20436865636b20746f6b656e20616c6c6f77616e6365600082015250565b600061205f6020836118ea565b915061206a82612029565b602082019050919050565b6000602082019050818103600083015261208e81612052565b9050919050565b60006060820190506120aa60008301866116f0565b6120b760208301856116f0565b6120c46040830184611636565b94935050505056fea2646970667358221220b8d6acce2b7bb2e2eb889cd147d4bb9f260624b6488f5081a409f20d2c3cb7fe64736f6c63430008140033",
  "linkReferences": {},
  "deployedLinkReferences": {}
}